:020000020000FC
:040000000C946708ED
:100040000C9457089918882460FD920E9794879411
:1000500061FD920E9794879462FD920E9794879417
:1000600063FD920E9794879464FD920E9794879403
:1000700065FD920E9794879466FD920E97948794EF
:1000800067FD920E979487940895AA18992488245E
:1000900060FF02C0920EA31EA7949794879461FFFD
:1000A00002C0920EA31EA7949794879462FF02C089
:1000B000920EA31EA7949794879463FF02C0920E9A
:1000C000A31EA7949794879464FF02C0920EA31E68
:1000D000A7949794879465FF02C0920EA31EA794DD
:1000E0009794879466FF02C0920EA31EA7949794DC
:1000F000879467FF02C0920EA31EA79497948794DB
:100100000895BB18AA2499248824002460FF03C002
:10011000920EA31EB01C70FF02C0A20EB31EB794B5
:10012000A7949794879461FF03C0920EA31EB01CFE
:1001300071FF02C0A20EB31EB794A7949794879440
:1001400062FF03C0920EA31EB01C72FF02C0A20E7B
:10015000B31EB794A7949794879463FF03C0920E3D
:10016000A31EB01C73FF02C0A20EB31EB794A794C7
:100170009794879464FF03C0920EA31EB01C74FF73
:1001800002C0A20EB31EB794A7949794879465FFFC
:1001900003C0920EA31EB01C75FF02C0A20EB31EB8
:1001A000B794A7949794879466FF03C0920EA31EFA
:1001B000B01C76FF02C0A20EB31EB794A79497940A
:1001C000879467FF03C0920EA31EB01C77FF02C086
:1001D000A20EB31EB794A794979487940895BB1862
:1001E000AA249924882460FF03C0920EA31EB41E83
:1001F000B794A7949794879461FF03C0920EA31EAF
:10020000B41EB794A7949794879462FF03C0920E8C
:10021000A31EB41EB794A7949794879463FF03C05A
:10022000920EA31EB41EB794A7949794879464FF6C
:1002300003C0920EA31EB41EB794A79497948794FC
:1002400065FF03C0920EA31EB41EB794A7949794A3
:10025000879466FF03C0920EA31EB41EB794A794A2
:100260009794879467FF03C0920EA31EB41EB794A1
:10027000A794979487940895CC18BB24AA24992412
:100280008824002460FF04C0920EA31EB41EC01C6C
:1002900070FF03C0A20EB31EC41EC794B794A794E8
:1002A0009794879461FF04C0920EA31EB41EC01CD5
:1002B00071FF03C0A20EB31EC41EC794B794A794C7
:1002C0009794879462FF04C0920EA31EB41EC01CB4
:1002D00072FF03C0A20EB31EC41EC794B794A794A6
:1002E0009794879463FF04C0920EA31EB41EC01C93
:1002F00073FF03C0A20EB31EC41EC794B794A79485
:100300009794879464FF04C0920EA31EB41EC01C71
:1003100074FF03C0A20EB31EC41EC794B794A79463
:100320009794879465FF04C0920EA31EB41EC01C50
:1003300075FF03C0A20EB31EC41EC794B794A79442
:100340009794879466FF04C0920EA31EB41EC01C2F
:1003500076FF03C0A20EB31EC41EC794B794A79421
:100360009794879467FF04C0920EA31EB41EC01C0E
:1003700077FF03C0A20EB31EC41EC794B794A79400
:10038000979487940895DD18CC24BB24AA2499243B
:100390008824002460FF04C0920EA31EB41EC01C5B
:1003A000D01C70FF03C0A20EB31EC41ED01C80FF61
:1003B00003C0B20E831ED41ED794C794B794A794DB
:1003C0009794879461FF04C0920EA31EB41EC01CB4
:1003D000D01C71FF03C0A20EB31EC41ED01C81FF2F
:1003E00003C0B20E831ED41ED794C794B794A794AB
:1003F0009794879462FF04C0920EA31EB41EC01C83
:10040000D01C72FF03C0A20EB31EC41ED01C82FFFC
:1004100003C0B20E831ED41ED794C794B794A7947A
:100420009794879463FF04C0920EA31EB41EC01C51
:10043000D01C73FF03C0A20EB31EC41ED01C83FFCA
:1004400003C0B20E831ED41ED794C794B794A7944A
:100450009794879464FF04C0920EA31EB41EC01C20
:10046000D01C74FF03C0A20EB31EC41ED01C84FF98
:1004700003C0B20E831ED41ED794C794B794A7941A
:100480009794879465FF04C0920EA31EB41EC01CEF
:10049000D01C75FF03C0A20EB31EC41ED01C85FF66
:1004A00003C0B20E831ED41ED794C794B794A794EA
:1004B0009794879466FF04C0920EA31EB41EC01CBE
:1004C000D01C76FF03C0A20EB31EC41ED01C86FF34
:1004D00003C0B20E831ED41ED794C794B794A794BA
:1004E0009794879467FF04C0920EA31EB41EC01C8D
:1004F000D01C77FF03C0A20EB31EC41ED01C87FF02
:1005000003C0B20E831ED41ED794C794B794A79489
:10051000979487940895FF18EE24DD24CC24BB24FF
:10052000AA2499248824002460FF07C0920EA31EE9
:10053000B41EC51ED01CE01CF01C70FF06C0A20E2D
:10054000B31EC41ED51EE01CF01C80FF05C0B20EF9
:10055000C31ED41EE51EF01C90FF04C0C20ED31EA5
:10056000E41EF51EF794E794D794C794B794A79424
:100570009794879461FF07C0920EA31EB41EC51EF8
:10058000D01CE01CF01C71FF06C0A20EB31EC41EDE
:10059000D51EE01CF01C81FF05C0B20EC31ED41E88
:1005A000E51EF01C91FF04C0C20ED31EE41EF51E12
:1005B000F794E794D794C794B794A79497948794A3
:1005C00062FF07C0920EA31EB41EC51ED01CE01C05
:1005D000F01C72FF06C0A20EB31EC41ED51EE01C86
:1005E000F01C82FF05C0B20EC31ED41EE51EF01C17
:1005F00092FF04C0C20ED31EE41EF51EF794E794CA
:10060000D794C794B794A7949794879463FF07C02F
:10061000920EA31EB41EC51ED01CE01CF01C73FF5E
:1006200006C0A20EB31EC41ED51EE01CF01C83FF24
:1006300005C0B20EC31ED41EE51EF01C93FF04C0FD
:10064000C20ED31EE41EF51EF794E794D794C79408
:10065000B794A7949794879464FF07C0920EA31E43
:10066000B41EC51ED01CE01CF01C74FF06C0A20EF8
:10067000B31EC41ED51EE01CF01C84FF05C0B20EC4
:10068000C31ED41EE51EF01C94FF04C0C20ED31E70
:10069000E41EF51EF794E794D794C794B794A794F3
:1006A0009794879465FF07C0920EA31EB41EC51EC3
:1006B000D01CE01CF01C75FF06C0A20EB31EC41EA9
:1006C000D51EE01CF01C85FF05C0B20EC31ED41E53
:1006D000E51EF01C95FF04C0C20ED31EE41EF51EDD
:1006E000F794E794D794C794B794A7949794879472
:1006F00066FF07C0920EA31EB41EC51ED01CE01CD0
:10070000F01C76FF06C0A20EB31EC41ED51EE01C50
:10071000F01C86FF05C0B20EC31ED41EE51EF01CE1
:1007200096FF04C0C20ED31EE41EF51EF794E79494
:10073000D794C794B794A7949794879467FF07C0FA
:10074000920EA31EB41EC51ED01CE01CF01C77FF29
:1007500006C0A20EB31EC41ED51EE01CF01C87FFEF
:1007600005C0B20EC31ED41EE51EF01C97FF04C0C8
:10077000C20ED31EE41EF51EF794E794D794C794D7
:10078000B794A7949794879408955CDC27FD961AF4
:1007900067FD921A0895B5DC37FF02C0A61AB70AA2
:1007A00077FF02C0A21AB30A0895EDDD47FF03C028
:1007B000B61AC70AD80A87FF03C0B21AC30AD40AF6
:1007C0000895A9DE57FF04C0C61AD70AE80AF90A35
:1007D00097FF04C0C21AD30AE40AF50A0895822ECC
:1007E000CC18881CCC1CC61A08F4C60E881CCC1C5D
:1007F000C61A08F4C60E881CCC1CC61A08F4C60E0D
:10080000881CCC1CC61A08F4C60E881CCC1CC61A40
:1008100008F4C60E881CCC1CC61A08F4C60E881C28
:10082000CC1CC61A08F4C60E881CCC1CC61A08F4C8
:10083000C60E881C80940895822E932EDD18CC2439
:10084000881C991CCC1CDD1CC61AD70A10F4C60ED5
:10085000D71E881C991CCC1CDD1CC61AD70A10F4A4
:10086000C60ED71E881C991CCC1CDD1CC61AD70AC4
:1008700010F4C60ED71E881C991CCC1CDD1CC61A91
:10088000D70A10F4C60ED71E881C991CCC1CDD1C80
:10089000C61AD70A10F4C60ED71E881C991CCC1C89
:1008A000DD1CC61AD70A10F4C60ED71E881C991C68
:1008B000CC1CDD1CC61AD70A10F4C60ED71E881C25
:1008C000991CCC1CDD1CC61AD70A10F4C60ED71E04
:1008D000881C991CCC1CDD1CC61AD70A10F4C60E45
:1008E000D71E881C991CCC1CDD1CC61AD70A10F414
:1008F000C60ED71E881C991CCC1CDD1CC61AD70A34
:1009000010F4C60ED71E881C991CCC1CDD1CC61A00
:10091000D70A10F4C60ED71E881C991CCC1CDD1CEF
:10092000C61AD70A10F4C60ED71E881C991CCC1CF8
:10093000DD1CC61AD70A10F4C60ED71E881C991CD7
:10094000CC1CDD1CC61AD70A10F4C60ED71E881C94
:10095000991CCC1CDD1CC61AD70A10F4C60ED71E73
:10096000881C991C9094809408953090008037FCE6
:10097000FCCF03D000930080089500D000000895BC
:100980002D3069F12A30A9F10091008007FDFCCFDC
:10099000F4DF209300C0089501E0E7CF02E0E5CF47
:1009A00000E1E3CF04E1E1CF08E1DFCF0CE1DDCFEF
:1009B0000DE0DBCF0CE0D9CF0EE0D7CF0CE0D5CFE8
:1009C00005B7006C05BF01E0D0DF06E0CEDF0CE02C
:1009D000CCDF08E3CADF0895022F0068C6CF00917C
:1009E000008007FDFCCF00740068C7DF0093008023
:1009F00008952F9320E4F0DF2F9108950A950000C9
:100A00000000000000000000C9F708951D98159827
:100A10000895159A00EFF2DF159803E2EFDF01B1B8
:100A200005FB0DECEBDF0895159A0CE1E7DF159857
:100A300002E0E4DF01B105FB01E0E0DF0895159A73
:100A400001E0DCDF15980EE1D9DF01B105FB01E023
:100A5000D5DF0895159A01E0D1DF159807E0CEDFC4
:100A600001B105FB07E1CADF08953F9338E0279500
:100A700010F4E5DF01C0D8DF3A95C9F73F9108953A
:100A80003F9338E02795E6DF27F93A95D9F73F916C
:100A9000089509E148E0279508F4302730FB3795A1
:100AA00037F94A95C1F70895FF91EF91EE0FFF1FB7
:100AB000AF93BF93C8953196002021F04AF0002DE6
:100AC00017D0F8CF3196F695E795BF91AF9109947D
:100AD00000FA002DC895A02DA03610F0B2E001C09C
:100AE000BB273196043879F0053881F015C0E2CF84
:100AF0002F93FF93EF93E42DF52D202F0995EF9180
:100B0000FF912F9108950C91F3DFD4CF0D91002325
:100B100009F4D0CFEDDFFACF5F934F933F932F933C
:100B20009F938F937F936F932D913D914D915D9105
:100B300006FD06C005FD0FC004FD10C003FD19C071
:100B40006AE0702F76957770729580E0902F92957D
:100B5000937093951AC062E094E003C060E194E062
:100B600000C0702F7695777009F478E0729580E078
:100B70000CC06AE0C895802D3196C895702D3196CD
:100B8000902F95959370939500C0943081F0933099
:100B900051F0923021F0332716F427FD3FEF442720
:100BA00016F437FD4FEF552716F447FD5FEF09D0D8
:100BB0006F917F918F919F912F913F914F915F9175
:100BC00079CFCF92BF92AF929F928F92BB18AA24F7
:100BD0009924882486F4E89455236AF4689477234A
:100BE00009F0705150954095309520950FEF201BDE
:100BF000300B400B500B882351F055954795379596
:100C00002795B794A794979487948A95B1F77F9383
:100C100072957F700EE20F9345D00C2D30D00F935C
:100C20000027201730074007500729F07723A1F34A
:100C30007A9591F707C0772329F07A9519F000E2A9
:100C400057DFF9CF16F40DE253DF0F910E3211F09A
:100C50004FDFFBCF7F917F70772359F049DF282D3D
:100C6000392D4A2D5B2D11D00C2D09D041DF7A95FD
:100C7000D1F78F909F90AF90BF90CF9008950A309A
:100C800010F4005D0895095A0895CC2400E2889478
:100C900020FDC60EC79457954795379527950A9519
:100CA000B1F70895CC2400E2221F331F441F551FC3
:100CB000CC1CC61A08F4C60E0A95B1F7221F331FC2
:100CC000441F551F509540953095209508959EDE00
:100CD000A0DE28EBCADE9FD00FEF07BB089599DE98
:100CE0002CECC3DE24E4C1DE0EEE302E03E00F93C5
:100CF0003F9200E3302E06E03A94F1F73A940A95D9
:100D0000D9F73F900F913A9491F70A9581F781DED8
:100D10002CECABDE2EEBA9DEB3DE822EB1DE322F61
:100D2000282D932E3BDE00EC402E04E0502EBCDE3E
:100D300074656D703D8B12044220202020200A0033
:100D400068E1280D391D6150E1F737FB369527958D
:100D500037F937FB3695279537F937FB36952795C1
:100D600037F937FB3695279537F937FB36952795B1
:100D700037F90FE515E0200F311F00EC402E04E09D
:100D8000502E92DE70756C73653DD012757365637D
:100D9000202020200D00622F732F84E1262F372F73
:100DA000C49A21503040E9F7C49809E2302E09E690
:100DB0003A94F1F73A940A95D9F7815079F7089562
:100DC000B0E0A1E020910002C6D0B0E0A2E0209106
:100DD0000102C1D062FC15C0C0900002D090010297
:100DE00018DE2CEC42DE2EE440DE2C2D3EDE2D2DD6
:100DF0003CDE2FE73ADE0DDE2CEC37DE28E435DE74
:100E000008952091000226D02F932091010222D034
:100E1000D22ECF90E5CFB0E0A1E0ABD0C22EB0E0B3
:100E2000A2E0A7D0D22EC0920002D0920102089573
:100E300027FB203012F420952F5F69E003D9282D7D
:100E4000392D65E07727F8DC282D16F420952F5FE3
:100E5000205E0895205227FB203012F420952F5F4A
:100E600065E0F0D8282D392D69E07727E5DC282DBD
:100E700016F420952F5F0895771B6627331B2227D2
:100E800080E10799FECFF89404E4302E01E53A940E
:100E9000F1F73A940A95D9F7889407990894079B33
:100EA0008894661F771F60FD0CC00AE0302E07E0B3
:100EB0003A94F1F73A940A95D9F78A9571F70C9418
:100EC0006B070AE1302E0DE03A94F1F73A940A9557
:100ED000D9F78A9511F7C62ED72E262F372F80E106
:100EE0008894771B662707990894079B8894661F48
:100EF000771F60FD0CC00AE0302E07E03A94F1F74E
:100F00003A940A95D9F78A9571F70C9491070AE1FA
:100F1000302E0DE03A94F1F73A940A95D9F78A9574
:100F200011F7E62EF72E0FEFF01659F40FEFE0163B
:100F300041F40FEFD01629F40FEFC01611F460E062
:100F40000895D094CD1029F4F094EF1011F4609529
:100F5000089560E00895E199FECFAEBBBFBB2DBB05
:100F60001FF0E29AE19A0895F894E29AE19A78944F
:100F70000895E199FECFAEBBBFBBE09A2DB30895B3
:100F80000BDD0CDD162D137000E0101759F101E098
:100F90001017E1F102E0101791F003E01017C9F00B
:100FA00000EC402E04E0502E7FDD4365206D656E21
:100FB0007520657374206661757800009EC000EC32
:100FC000402E04E0502E70DD4D75736963000C9463
:100FD0007D0800EC402E04E0502E66DD4A65750069
:100FE0000C947D0863FC43C000EC402E04E0502EBE
:100FF0005BDD54656D7065726174757265730A6C42
:10100000696D6974657300000C947D0863FC0DC004
:1010100000EC402E04E0502E47DD54656D70657283
:101020006174757265000C947D0800EC402E04E03C
:10103000502E3ADD4465677265203A0A000062FC72
:101040000AC000EC402E04E0502E2EDD43656C7388
:101050006975730052C000EC402E04E0502E24DD70
:1010600046616872656E68656974000046C03091BB
:101070000202109100022091010200EC402E04E0D7
:10108000502E12DD54683A20C1112020753AC01349
:101090000A546C3A20C112000C944E0800E42FE070
:1010A00064FC200F99DC2CE36BDC0C947D080F931F
:1010B0001F932F933F936F937F931FB610DE1FBE36
:1010C0007F916F913F912F911F910F9118950FEF85
:1010D0000DBF00E10EBFB0E0A0E04BDF622E01E0EB
:1010E00000930202F4DD6CDC08E000BF07E003BF00
:1010F00001E007BF7894F3DD43CFBEDE7894603023
:1011000009F0FBCFFACF623231F1623C51F062302C
:1011100099F0683921F1603961F1683A99F10C94DC
:10112000DF0863FC14C0162D13701F5F13700CEFE3
:101130006022610E0C94130963FC09C0162D137014
:10114000115013700CEF6022610E0C94130900E132
:1011500060260C94130908E060260C941309062DF0
:101160000B70093009F00C94C00704E060260C9461
:101170001309062D0B70083009F00C94C00700917C
:1011800002020BC0062D0B70083009F00C94C0074A
:101190000091020200950F5F00C064FC03C0209123
:1011A000000202C020910102200F64FC03C02093C2
:1011B000000202C02093010203DE0C94C007062D3A
:1011C0000B70083009F00C94C0076033A1F068314F
:1011D000A1F06A37A1F06031A1F06833A1F06A355F
:1011E000A1F06234A1F06A34A1F06235A1F0683652
:1011F000A1F00C94C00701E012C002E010C003E0AF
:101200000EC004E00CC005E00AC006E008C007E01C
:1012100006C008E004C009E002C00AE000C0009374
:1012200002020C94C007B0E0A0E0262D94DE0C94DE
:02123000C007F5
:00000001FF
