:020000020000FC
:040000000C94E60A6C
:040020000C94B40A7E
:100040000C94BC0A9918882460FD920E97948794AA
:1000500061FD920E9794879462FD920E9794879417
:1000600063FD920E9794879464FD920E9794879403
:1000700065FD920E9794879466FD920E97948794EF
:1000800067FD920E979487940895AA18992488245E
:1000900060FF02C0920EA31EA7949794879461FFFD
:1000A00002C0920EA31EA7949794879462FF02C089
:1000B000920EA31EA7949794879463FF02C0920E9A
:1000C000A31EA7949794879464FF02C0920EA31E68
:1000D000A7949794879465FF02C0920EA31EA794DD
:1000E0009794879466FF02C0920EA31EA7949794DC
:1000F000879467FF02C0920EA31EA79497948794DB
:100100000895BB18AA2499248824002460FF03C002
:10011000920EA31EB01C70FF02C0A20EB31EB794B5
:10012000A7949794879461FF03C0920EA31EB01CFE
:1001300071FF02C0A20EB31EB794A7949794879440
:1001400062FF03C0920EA31EB01C72FF02C0A20E7B
:10015000B31EB794A7949794879463FF03C0920E3D
:10016000A31EB01C73FF02C0A20EB31EB794A794C7
:100170009794879464FF03C0920EA31EB01C74FF73
:1001800002C0A20EB31EB794A7949794879465FFFC
:1001900003C0920EA31EB01C75FF02C0A20EB31EB8
:1001A000B794A7949794879466FF03C0920EA31EFA
:1001B000B01C76FF02C0A20EB31EB794A79497940A
:1001C000879467FF03C0920EA31EB01C77FF02C086
:1001D000A20EB31EB794A794979487940895BB1862
:1001E000AA249924882460FF03C0920EA31EB41E83
:1001F000B794A7949794879461FF03C0920EA31EAF
:10020000B41EB794A7949794879462FF03C0920E8C
:10021000A31EB41EB794A7949794879463FF03C05A
:10022000920EA31EB41EB794A7949794879464FF6C
:1002300003C0920EA31EB41EB794A79497948794FC
:1002400065FF03C0920EA31EB41EB794A7949794A3
:10025000879466FF03C0920EA31EB41EB794A794A2
:100260009794879467FF03C0920EA31EB41EB794A1
:10027000A794979487940895CC18BB24AA24992412
:100280008824002460FF04C0920EA31EB41EC01C6C
:1002900070FF03C0A20EB31EC41EC794B794A794E8
:1002A0009794879461FF04C0920EA31EB41EC01CD5
:1002B00071FF03C0A20EB31EC41EC794B794A794C7
:1002C0009794879462FF04C0920EA31EB41EC01CB4
:1002D00072FF03C0A20EB31EC41EC794B794A794A6
:1002E0009794879463FF04C0920EA31EB41EC01C93
:1002F00073FF03C0A20EB31EC41EC794B794A79485
:100300009794879464FF04C0920EA31EB41EC01C71
:1003100074FF03C0A20EB31EC41EC794B794A79463
:100320009794879465FF04C0920EA31EB41EC01C50
:1003300075FF03C0A20EB31EC41EC794B794A79442
:100340009794879466FF04C0920EA31EB41EC01C2F
:1003500076FF03C0A20EB31EC41EC794B794A79421
:100360009794879467FF04C0920EA31EB41EC01C0E
:1003700077FF03C0A20EB31EC41EC794B794A79400
:10038000979487940895DD18CC24BB24AA2499243B
:100390008824002460FF04C0920EA31EB41EC01C5B
:1003A000D01C70FF03C0A20EB31EC41ED01C80FF61
:1003B00003C0B20E831ED41ED794C794B794A794DB
:1003C0009794879461FF04C0920EA31EB41EC01CB4
:1003D000D01C71FF03C0A20EB31EC41ED01C81FF2F
:1003E00003C0B20E831ED41ED794C794B794A794AB
:1003F0009794879462FF04C0920EA31EB41EC01C83
:10040000D01C72FF03C0A20EB31EC41ED01C82FFFC
:1004100003C0B20E831ED41ED794C794B794A7947A
:100420009794879463FF04C0920EA31EB41EC01C51
:10043000D01C73FF03C0A20EB31EC41ED01C83FFCA
:1004400003C0B20E831ED41ED794C794B794A7944A
:100450009794879464FF04C0920EA31EB41EC01C20
:10046000D01C74FF03C0A20EB31EC41ED01C84FF98
:1004700003C0B20E831ED41ED794C794B794A7941A
:100480009794879465FF04C0920EA31EB41EC01CEF
:10049000D01C75FF03C0A20EB31EC41ED01C85FF66
:1004A00003C0B20E831ED41ED794C794B794A794EA
:1004B0009794879466FF04C0920EA31EB41EC01CBE
:1004C000D01C76FF03C0A20EB31EC41ED01C86FF34
:1004D00003C0B20E831ED41ED794C794B794A794BA
:1004E0009794879467FF04C0920EA31EB41EC01C8D
:1004F000D01C77FF03C0A20EB31EC41ED01C87FF02
:1005000003C0B20E831ED41ED794C794B794A79489
:10051000979487940895FF18EE24DD24CC24BB24FF
:10052000AA2499248824002460FF07C0920EA31EE9
:10053000B41EC51ED01CE01CF01C70FF06C0A20E2D
:10054000B31EC41ED51EE01CF01C80FF05C0B20EF9
:10055000C31ED41EE51EF01C90FF04C0C20ED31EA5
:10056000E41EF51EF794E794D794C794B794A79424
:100570009794879461FF07C0920EA31EB41EC51EF8
:10058000D01CE01CF01C71FF06C0A20EB31EC41EDE
:10059000D51EE01CF01C81FF05C0B20EC31ED41E88
:1005A000E51EF01C91FF04C0C20ED31EE41EF51E12
:1005B000F794E794D794C794B794A79497948794A3
:1005C00062FF07C0920EA31EB41EC51ED01CE01C05
:1005D000F01C72FF06C0A20EB31EC41ED51EE01C86
:1005E000F01C82FF05C0B20EC31ED41EE51EF01C17
:1005F00092FF04C0C20ED31EE41EF51EF794E794CA
:10060000D794C794B794A7949794879463FF07C02F
:10061000920EA31EB41EC51ED01CE01CF01C73FF5E
:1006200006C0A20EB31EC41ED51EE01CF01C83FF24
:1006300005C0B20EC31ED41EE51EF01C93FF04C0FD
:10064000C20ED31EE41EF51EF794E794D794C79408
:10065000B794A7949794879464FF07C0920EA31E43
:10066000B41EC51ED01CE01CF01C74FF06C0A20EF8
:10067000B31EC41ED51EE01CF01C84FF05C0B20EC4
:10068000C31ED41EE51EF01C94FF04C0C20ED31E70
:10069000E41EF51EF794E794D794C794B794A794F3
:1006A0009794879465FF07C0920EA31EB41EC51EC3
:1006B000D01CE01CF01C75FF06C0A20EB31EC41EA9
:1006C000D51EE01CF01C85FF05C0B20EC31ED41E53
:1006D000E51EF01C95FF04C0C20ED31EE41EF51EDD
:1006E000F794E794D794C794B794A7949794879472
:1006F00066FF07C0920EA31EB41EC51ED01CE01CD0
:10070000F01C76FF06C0A20EB31EC41ED51EE01C50
:10071000F01C86FF05C0B20EC31ED41EE51EF01CE1
:1007200096FF04C0C20ED31EE41EF51EF794E79494
:10073000D794C794B794A7949794879467FF07C0FA
:10074000920EA31EB41EC51ED01CE01CF01C77FF29
:1007500006C0A20EB31EC41ED51EE01CF01C87FFEF
:1007600005C0B20EC31ED41EE51EF01C97FF04C0C8
:10077000C20ED31EE41EF51EF794E794D794C794D7
:10078000B794A7949794879408955CDC27FD961AF4
:1007900067FD921A0895B5DC37FF02C0A61AB70AA2
:1007A00077FF02C0A21AB30A0895EDDD47FF03C028
:1007B000B61AC70AD80A87FF03C0B21AC30AD40AF6
:1007C0000895A9DE57FF04C0C61AD70AE80AF90A35
:1007D00097FF04C0C21AD30AE40AF50A0895822ECC
:1007E000CC18881CCC1CC61A08F4C60E881CCC1C5D
:1007F000C61A08F4C60E881CCC1CC61A08F4C60E0D
:10080000881CCC1CC61A08F4C60E881CCC1CC61A40
:1008100008F4C60E881CCC1CC61A08F4C60E881C28
:10082000CC1CC61A08F4C60E881CCC1CC61A08F4C8
:10083000C60E881C80940895822E932EDD18CC2439
:10084000881C991CCC1CDD1CC61AD70A10F4C60ED5
:10085000D71E881C991CCC1CDD1CC61AD70A10F4A4
:10086000C60ED71E881C991CCC1CDD1CC61AD70AC4
:1008700010F4C60ED71E881C991CCC1CDD1CC61A91
:10088000D70A10F4C60ED71E881C991CCC1CDD1C80
:10089000C61AD70A10F4C60ED71E881C991CCC1C89
:1008A000DD1CC61AD70A10F4C60ED71E881C991C68
:1008B000CC1CDD1CC61AD70A10F4C60ED71E881C25
:1008C000991CCC1CDD1CC61AD70A10F4C60ED71E04
:1008D000881C991CCC1CDD1CC61AD70A10F4C60E45
:1008E000D71E881C991CCC1CDD1CC61AD70A10F414
:1008F000C60ED71E881C991CCC1CDD1CC61AD70A34
:1009000010F4C60ED71E881C991CCC1CDD1CC61A00
:10091000D70A10F4C60ED71E881C991CCC1CDD1CEF
:10092000C61AD70A10F4C60ED71E881C991CCC1CF8
:10093000DD1CC61AD70A10F4C60ED71E881C991CD7
:10094000CC1CDD1CC61AD70A10F4C60ED71E881C94
:10095000991CCC1CDD1CC61AD70A10F4C60ED71E73
:10096000881C991C9094809408953090008037FCE6
:10097000FCCF03D000930080089500D000000895BC
:100980002D3069F12A30A9F10091008007FDFCCFDC
:10099000F4DF209300C0089501E0E7CF02E0E5CF47
:1009A00000E1E3CF04E1E1CF08E1DFCF0CE1DDCFEF
:1009B0000DE0DBCF0CE0D9CF0EE0D7CF0CE0D5CFE8
:1009C00005B7006C05BF01E0D0DF06E0CEDF0CE02C
:1009D000CCDF08E3CADF0895022F0068C6CF00917C
:1009E000008007FDFCCF00740068C7DF0093008023
:1009F00008952F9320E4F0DF2F9108950A950000C9
:100A00000000000000000000C9F7089595988D9837
:100A100008958D9A00EFF2DF8D9803E2EFDF00B3C7
:100A200005FB0DECEBDF08958D9A0CE1E7DF8D9867
:100A300002E0E4DF00B305FB01E0E0DF08958D9AFA
:100A400001E0DCDF8D980EE1D9DF00B305FB01E0AA
:100A5000D5DF08958D9A01E0D1DF8D9807E0CEDFD4
:100A600000B305FB07E1CADF08953F9338E02795FF
:100A700010F4E5DF01C0D8DF3A95C9F73F9108953A
:100A80003F9338E02795E6DF27F93A95D9F73F916C
:100A9000089509E148E0279508F4302730FB3795A1
:100AA00037F94A95C1F70895FF91EF91EE0FFF1FB7
:100AB000AF93BF93C8953196002021F04AF0002DE6
:100AC00017D0F8CF3196F695E795BF91AF9109947D
:100AD00000FA002DC895A02DA03610F0B2E001C09C
:100AE000BB273196043879F0053881F015C0E2CF84
:100AF0002F93FF93EF93E42DF52D202F0995EF9180
:100B0000FF912F9108950C91F3DFD4CF0D91002325
:100B100009F4D0CFEDDFFACF5F934F933F932F933C
:100B20009F938F937F936F932D913D914D915D9105
:100B300006FD06C005FD0FC004FD10C003FD19C071
:100B40006AE0702F76957770729580E0902F92957D
:100B5000937093951AC062E094E003C060E194E062
:100B600000C0702F7695777009F478E0729580E078
:100B70000CC06AE0C895802D3196C895702D3196CD
:100B8000902F95959370939500C0943081F0933099
:100B900051F0923021F0332716F427FD3FEF442720
:100BA00016F437FD4FEF552716F447FD5FEF09D0D8
:100BB0006F917F918F919F912F913F914F915F9175
:100BC00079CFCF92BF92AF929F928F92BB18AA24F7
:100BD0009924882486F4E89455236AF4689477234A
:100BE00009F0705150954095309520950FEF201BDE
:100BF000300B400B500B882351F055954795379596
:100C00002795B794A794979487948A95B1F77F9383
:100C100072957F700EE20F9345D00C2D30D00F935C
:100C20000027201730074007500729F07723A1F34A
:100C30007A9591F707C0772329F07A9519F000E2A9
:100C400057DFF9CF16F40DE253DF0F910E3211F09A
:100C50004FDFFBCF7F917F70772359F049DF282D3D
:100C6000392D4A2D5B2D11D00C2D09D041DF7A95FD
:100C7000D1F78F909F90AF90BF90CF9008950A309A
:100C800010F4005D0895095A0895CC2400E2889478
:100C900020FDC60EC79457954795379527950A9519
:100CA000B1F70895CC2400E2221F331F441F551FC3
:100CB000CC1CC61A08F4C60E0A95B1F7221F331FC2
:100CC000441F551F509540953095209508959EDE00
:100CD000A0DE28EBCADE93D00FEF07BB089599DEA4
:100CE0002CECC3DE24E4C1DE0EEE302E03E00F93C5
:100CF0003F9200E3302E06E03A94F1F73A940A95D9
:100D0000D9F73F900F913A9491F70A9581F781DED8
:100D10002CECABDE2EEBA9DEB3DE822EB1DE322F61
:100D2000282D932E68E1280D391D6150E1F737FB1E
:100D30003695279537F937FB3695279537F937FBE1
:100D40003695279537F937FB3695279537F937FBD1
:100D50003695279537F90FEF2027302701E0200F30
:100D60000027301F09E516E0200F311F622F732F77
:100D700084E1262F372FC49A21503040E9F7C498D8
:100D800009E2302E09E63A94F1F73A940A95D9F738
:100D9000815079F73EDE2CEE68DE72DE00E22F3FF6
:100DA00009F0009304020895B0E0A1E02091000250
:100DB00096D1B0E0A2E02091010291D162FC15C071
:100DC000C0900002D090010224DE2CEC4EDE2EE416
:100DD0004CDE2C2D4ADE2D2D48DE2FE746DE19DEB7
:100DE0002CEC43DE28E441DE08952091000226D059
:100DF0002F932091010222D0D22ECF90E5CFB0E0E8
:100E0000A1E07BD1C22EB0E0A2E077D1D22EC09279
:100E10000002D0920102089527FB203012F42095A1
:100E20002F5F69E00FD9282D392D65E0772704DD84
:100E3000282D16F420952F5F205E0895205227FB61
:100E4000203012F420952F5F65E0FCD8282D392D35
:100E500069E07727F1DC282D16F420952F5F08959F
:100E6000762F66273327213071F0022F12D0000031
:100E70000A95E1F71A9B02C01A9801C01A9A621BE0
:100E8000730B98F7089521E004D0621B730BE0F711
:100E9000089500C000C000D000D0000008952628AA
:100EA000262826332A30399972604C393399794C87
:100EB00079333099724C2628262826332A303999DE
:100EC00072604C3933997955303339997233302AFD
:100ED0002680604024262A806648262A308060408A
:100EE000242633994C4C264C264C26282628262886
:100EF00026282628262826332A30399972604C392C
:100F00003399794C3C663099724C26282628263332
:100F10002A30399972604C3933997955303339997F
:100F20007233302A01010000302A263001302A268F
:100F3000300126242020012624202001201C2024EA
:100F4000263001201C2024263001303080803030B3
:100F500001303080803030010100606060554C4CC1
:100F60005555604C55556060606001606060554C3F
:100F70004C5555604C555560606060015555555550
:100F80007272727255606672808001016060605595
:100F90004C4C5555604C55556060010101010000F5
:100FA0006048393948600000062D007C003031F07F
:100FB000003439F0003841F0003C49F0EEE9FEE041
:100FC00009C0E8E2FFE006C0EAE5FFE003C0E0EAAE
:100FD000FFE000C00091040205FF0BC0C8953196E8
:100FE000002011F3202D64E6213009F469E138DF97
:100FF000F1CF00E00093040208951798129A00E0E0
:10100000009304020895771B6627331B222780E193
:1010100004E4302E01E53A94F1F73A940A95D9F7B1
:1010200088940F9908940F9B8894661F771F60FD22
:101030000CC009E1302E07E03A94F1F73A940A9592
:10104000D9F78A9571F70C942F0805E3302E0DE03F
:101050003A94F1F73A940A95D9F78A9511F7C62E82
:10106000D72E262F372F80E18894771B66270F997C
:1010700008940F9B8894661F771F60FD0CC009E1E0
:10108000302E07E03A94F1F73A940A95D9F78A9509
:1010900071F70C94550805E3302E0DE03A94F1F702
:1010A0003A940A95D9F78A9511F7E62EF72E0FEFA5
:1010B000F01659F40FEFE01641F40FEFD01629F4B3
:1010C0000FEFC01611F460E00895D094CD1029F40C
:1010D000F094EF1011F46095089560E00895E1999F
:1010E000FECFAEBBBFBB2DBB1FF0E29AE19A0895C5
:1010F000F894E29AE19A78940895E199FECFAEBB14
:10110000BFBBE09A2DB3089547DC48DC009105028F
:10111000003009F080C2162D137000E0101711F195
:1011200001E0101799F102E0101721F003E0101709
:1011300069F071C263FCA5C000EC402E04E0502EA3
:10114000B3DC416C61726D6500008FC063FC75C0DB
:1011500000EC402E04E0502EA7DC4552524F5200C6
:101160000C940B0B63FC49C000EC402E04E0502EA5
:101170009BDC54656D7065726174757265730A6C81
:10118000696D6974657300000C940B0B63FC13C0EC
:1011900000EC402E04E0502E87DC456368656C6CE3
:1011A000652064650A74656D706572617475726539
:1011B00000000C940B0B00EC402E04E0502E74DC6D
:1011C0004465677265203A0A000062FC0AC000ECC0
:1011D000402E04E0502E68DC43656C736975730023
:1011E0001AC200EC402E04E0502E5EDC46616872AC
:1011F000656E6865697400000EC23091020210913C
:1012000000022091010200EC402E04E0502E4CDC44
:1012100054683A20C1112020753AC0130A546C3A20
:1012200020C112000C94140900E42FE064FC200F8C
:10123000D3DB2FE7A5DB0C940B0B00EC402E04E076
:10124000502E32DC4552524F52203A205072657374
:10125000732045510A5468656E206368616E676546
:10126000206D656E75000C940B0B2FE0B5DB65FEF1
:1012700004C021E085DB0C940B0B22E081DB0C9495
:101280000B0B00EC402E04E0502E0EDC5175656C0B
:101290006C6520616C61726D65203F0A0000062D4F
:1012A000007C003031F0003481F00038E1F0003C87
:1012B00041F100EC402E04E0502EF6DB4675722022
:1012C000456C697365000C940B0B00EC402E04E038
:1012D000502EEADB4672657265204A61637175655E
:1012E00073000C940B0B00EC402E04E0502EDCDB62
:1012F000436C616972206465206C756E65000C94A6
:101300000B0B00EC402E04E0502ECEDB416C6172E2
:101310006D6500000C940B0B04060505041C1C00F5
:10132000FBF9FAFAFBE3E3FF3090008037FCFCCFD7
:1013300008E400930080E8E1F3E128E00CD030906D
:10134000008037FCFCCF00E500930080E0E2F3E191
:1013500028E001D008953090008037FCFCCFC8957C
:10136000002D3196009300C02A95A9F717DB089548
:10137000623A99F000910502003009F04CC1603EDC
:10138000A9F0623CB9F0623011F1623E69F162325B
:1013900079F1603BE9F10C94160A00910502009581
:1013A00000930502003009F00C94840808E06026E0
:1013B0000C94AE0A63FC28C0162D13701F5F133007
:1013C00009F410E00CEF6022610E0C94AE0A63FC8D
:1013D0001BC0162D137011501F3F09F412E00CEFC3
:1013E0006022610E0C94AE0A00E260260C94AE0AF4
:1013F000062D0B700A3009F00C94840800E200936B
:101400000402D2DD0C94840800E160260C94AE0A3C
:10141000062D0B700A3009F00C948408062D007C10
:10142000005C1FE36122600E0C94AE0A683931F053
:10143000603921F1683A59F10C947A0A062D0B7043
:10144000093009F00C94840804E060262091000221
:1014500062FC09C0F3DC2093000220910102EEDC63
:101460002093010208C0D8DC2093000220910102E1
:10147000D3DC2093010298DC0C94AE0A062D0B708D
:10148000083009F00C948408009102020BC0062D6C
:101490000B70083009F00C9484080091020200954A
:1014A0000F5F00C0209100023091010264FC0EC069
:1014B000200F0BF42DE702E362FC0DE720170CF080
:1014C000202F321784F0232F2F5F0DC0300F0BF425
:1014D0003DE702EE62FC07EE30170CF4302F3217B6
:1014E00014F0322F315020930002309301025CDC63
:1014F0000C948408062D0B70083009F00C948408B5
:101500006033A1F06831A1F06A37A1F06031A1F039
:101510006833A1F06A35A1F06234A1F06A34A1F019
:101520006235A1F06836A1F00C94840801E012C085
:1015300002E010C003E00EC004E00CC005E00AC0E9
:1015400006E008C007E006C008E004C009E002C0E9
:101550000AE000C0009302020C948408B0E0A0E00E
:10156000262DBDDD0C9484080F931FB600E0009378
:1015700004021FBE0F9118950F93009103020150B2
:1015800000930302003011F00F91189505E00093CD
:1015900003021F932F933F936F937F938F938F92A9
:1015A0009F92CF92DF92BF93AF931FB698DB1FBE7F
:1015B000AF91BF91DF90CF909F908F908F917F914F
:1015C0006F913F912F911F910F9118950FEF0DBFC4
:1015D00000E10EBFB0E0A0E090DD622E01E00093DC
:1015E000020205E00093030200E00093040200E021
:1015F0000093050200E809BF00E80ABFFEDC67DBD4
:10160000DFD992DE08E000BF07E003BF01E007BFBB
:10161000789465DB79CD00910402062105FDC4DCD8
:101620000F99F9CFF894EFDC78946030A1F3A0CE55
:00000001FF
